请求的数据 listunspent : {"id":"2","jsonrpc":"2.0","method":"listunspent","params":[1,9999999,["2NEQo5P3AFNfUf8cBVvnuSHBJiYF9mEPR3P"],true,{"minimumAmount":0.0001}]} 
returnJson: 200 OK 
请求的数据 listunspent : {"id":"2","jsonrpc":"2.0","method":"listunspent","params":[1,9999999,["2NEQo5P3AFNfUf8cBVvnuSHBJiYF9mEPR3P"],true]} 
returnJson: 200 OK

请求的数据 createrawtransaction : {"id":"3","jsonrpc":"2.0","method":"createrawtransaction","params":[[{"txid":"ac8a990fee9d616387220abe0af47c14df5d7377d0960e348da70cb873e929be","vout":1,"redeemScript":"522103d8123bee8ca916c7b5eafaf6602eeb71d9ee70a6bb2a9b88862ac0de8b8735032103b6f0a386c1544c5d57c00b90e380d7dbc9a582c86157516d7b5db513c0938c642103b9742d1bc44d50daaa36fbde73783388e6d2fcdc00e9e573662b06528eab8e6753ae","scriptPubKey":"a914e82a01675db43972f1cf2db99f870b742e5d0e0587"}],{"mvhRq2e5mjFnpz23QLoE5nwhknj7fT5wDt":0.0001,"2NEQo5P3AFNfUf8cBVvnuSHBJiYF9mEPR3P":0.00928}]} 
returnJson: 200 OK 
createrawtransaction 创建交易返回结果如下： {"result":"0200000001be29e973b80ca78d340e96d077735ddf147cf40abe0a228763619dee0f998aac0100000000ffffffff0210270000000000001976a914a68507d84e71f109523150a1b41e25dd1b7f48d588ac00290e000000000017a914e82a01675db43972f1cf2db99f870b742e5d0e058700000000","error":null,"id":"3"}

获取创建交易生成的hexstring: 0200000001be29e973b80ca78d340e96d077735ddf147cf40abe0a228763619dee0f998aac0100000000ffffffff0210270000000000001976a914a68507d84e71f109523150a1b41e25dd1b7f48d588ac00290e000000000017a914e82a01675db43972f1cf2db99f870b742e5d0e058700000000 
请求的数据 signrawtransaction : {"id":"4","jsonrpc":"2.0","method":"signrawtransaction","params":["0200000001be29e973b80ca78d340e96d077735ddf147cf40abe0a228763619dee0f998aac0100000000ffffffff0210270000000000001976a914a68507d84e71f109523150a1b41e25dd1b7f48d588ac00290e000000000017a914e82a01675db43972f1cf2db99f870b742e5d0e058700000000",[{"txid":"ac8a990fee9d616387220abe0af47c14df5d7377d0960e348da70cb873e929be","vout":1,"redeemScript":"522103d8123bee8ca916c7b5eafaf6602eeb71d9ee70a6bb2a9b88862ac0de8b8735032103b6f0a386c1544c5d57c00b90e380d7dbc9a582c86157516d7b5db513c0938c642103b9742d1bc44d50daaa36fbde73783388e6d2fcdc00e9e573662b06528eab8e6753ae","scriptPubKey":"a914e82a01675db43972f1cf2db99f870b742e5d0e0587"}],["cVbNQMDy3K9ncpAregcbiRMtvz7hfsqiWAv4xSVex9apN35otBHn"]]} 
returnJson: 200 OK 
signrawtransaction 第一次签名结果如下 {"result":{"hex":"0200000001be29e973b80ca78d340e96d077735ddf147cf40abe0a228763619dee0f998aac01000000b500483045022100f990b4ab87413b9d57cfd3a503b77db0e0bd9ef7e589f348483b86f9c4e9fd1802204b32ad8571998b52ee94e3f3d1fd961d14fbd0de5a05186326192cd92fd671dd014c69522103d8123bee8ca916c7b5eafaf6602eeb71d9ee70a6bb2a9b88862ac0de8b8735032103b6f0a386c1544c5d57c00b90e380d7dbc9a582c86157516d7b5db513c0938c642103b9742d1bc44d50daaa36fbde73783388e6d2fcdc00e9e573662b06528eab8e6753aeffffffff0210270000000000001976a914a68507d84e71f109523150a1b41e25dd1b7f48d588ac00290e000000000017a914e82a01675db43972f1cf2db99f870b742e5d0e058700000000","complete":false,"errors":[{"txid":"ac8a990fee9d616387220abe0af47c14df5d7377d0960e348da70cb873e929be","vout":1,"witness":[],"scriptSig":"00483045022100f990b4ab87413b9d57cfd3a503b77db0e0bd9ef7e589f348483b86f9c4e9fd1802204b32ad8571998b52ee94e3f3d1fd961d14fbd0de5a05186326192cd92fd671dd014c69522103d8123bee8ca916c7b5eafaf6602eeb71d9ee70a6bb2a9b88862ac0de8b8735032103b6f0a386c1544c5d57c00b90e380d7dbc9a582c86157516d7b5db513c0938c642103b9742d1bc44d50daaa36fbde73783388e6d2fcdc00e9e573662b06528eab8e6753ae","sequence":4294967295,"error":"Operation not valid with the current stack size"}]},"error":null,"id":"4"}

第一次签名映射： 0200000001be29e973b80ca78d340e96d077735ddf147cf40abe0a228763619dee0f998aac01000000b500483045022100f990b4ab87413b9d57cfd3a503b77db0e0bd9ef7e589f348483b86f9c4e9fd1802204b32ad8571998b52ee94e3f3d1fd961d14fbd0de5a05186326192cd92fd671dd014c69522103d8123bee8ca916c7b5eafaf6602eeb71d9ee70a6bb2a9b88862ac0de8b8735032103b6f0a386c1544c5d57c00b90e380d7dbc9a582c86157516d7b5db513c0938c642103b9742d1bc44d50daaa36fbde73783388e6d2fcdc00e9e573662b06528eab8e6753aeffffffff0210270000000000001976a914a68507d84e71f109523150a1b41e25dd1b7f48d588ac00290e000000000017a914e82a01675db43972f1cf2db99f870b742e5d0e058700000000 
请求的数据 signrawtransaction : {"id":"5","jsonrpc":"2.0","method":"signrawtransaction","params":["0200000001be29e973b80ca78d340e96d077735ddf147cf40abe0a228763619dee0f998aac01000000b500483045022100f990b4ab87413b9d57cfd3a503b77db0e0bd9ef7e589f348483b86f9c4e9fd1802204b32ad8571998b52ee94e3f3d1fd961d14fbd0de5a05186326192cd92fd671dd014c69522103d8123bee8ca916c7b5eafaf6602eeb71d9ee70a6bb2a9b88862ac0de8b8735032103b6f0a386c1544c5d57c00b90e380d7dbc9a582c86157516d7b5db513c0938c642103b9742d1bc44d50daaa36fbde73783388e6d2fcdc00e9e573662b06528eab8e6753aeffffffff0210270000000000001976a914a68507d84e71f109523150a1b41e25dd1b7f48d588ac00290e000000000017a914e82a01675db43972f1cf2db99f870b742e5d0e058700000000",[{"txid":"ac8a990fee9d616387220abe0af47c14df5d7377d0960e348da70cb873e929be","vout":1,"redeemScript":"522103d8123bee8ca916c7b5eafaf6602eeb71d9ee70a6bb2a9b88862ac0de8b8735032103b6f0a386c1544c5d57c00b90e380d7dbc9a582c86157516d7b5db513c0938c642103b9742d1bc44d50daaa36fbde73783388e6d2fcdc00e9e573662b06528eab8e6753ae","scriptPubKey":"a914e82a01675db43972f1cf2db99f870b742e5d0e0587"}],["cSRHPY7QGxeicLqUVKddjRH3oxUJKBHKVrBFuVEDFpJhn48xRnty"]]} 
returnJson: 200 OK 
signrawtransaction 第二次签名结果如下 {"result":{"hex":"0200000001be29e973b80ca78d340e96d077735ddf147cf40abe0a228763619dee0f998aac01000000fdfd0000483045022100f990b4ab87413b9d57cfd3a503b77db0e0bd9ef7e589f348483b86f9c4e9fd1802204b32ad8571998b52ee94e3f3d1fd961d14fbd0de5a05186326192cd92fd671dd01473044022078bb8abbfb4ed3ba2b3bde978a47ed1cc1899e6e784f3fc86a6712e9718ea718022004d7c705fac0b9f9d2ebc4c0f9293c79310de9669cb61c9f65386bf6f459b387014c69522103d8123bee8ca916c7b5eafaf6602eeb71d9ee70a6bb2a9b88862ac0de8b8735032103b6f0a386c1544c5d57c00b90e380d7dbc9a582c86157516d7b5db513c0938c642103b9742d1bc44d50daaa36fbde73783388e6d2fcdc00e9e573662b06528eab8e6753aeffffffff0210270000000000001976a914a68507d84e71f109523150a1b41e25dd1b7f48d588ac00290e000000000017a914e82a01675db43972f1cf2db99f870b742e5d0e058700000000","complete":true},"error":null,"id":"5"}

第二次签名映射： true 0200000001be29e973b80ca78d340e96d077735ddf147cf40abe0a228763619dee0f998aac01000000fdfd0000483045022100f990b4ab87413b9d57cfd3a503b77db0e0bd9ef7e589f348483b86f9c4e9fd1802204b32ad8571998b52ee94e3f3d1fd961d14fbd0de5a05186326192cd92fd671dd01473044022078bb8abbfb4ed3ba2b3bde978a47ed1cc1899e6e784f3fc86a6712e9718ea718022004d7c705fac0b9f9d2ebc4c0f9293c79310de9669cb61c9f65386bf6f459b387014c69522103d8123bee8ca916c7b5eafaf6602eeb71d9ee70a6bb2a9b88862ac0de8b8735032103b6f0a386c1544c5d57c00b90e380d7dbc9a582c86157516d7b5db513c0938c642103b9742d1bc44d50daaa36fbde73783388e6d2fcdc00e9e573662b06528eab8e6753aeffffffff0210270000000000001976a914a68507d84e71f109523150a1b41e25dd1b7f48d588ac00290e000000000017a914e82a01675db43972f1cf2db99f870b742e5d0e058700000000 
成功了 
请求的数据 sendrawtransaction : {"id":"6","jsonrpc":"2.0","method":"sendrawtransaction","params":["0200000001be29e973b80ca78d340e96d077735ddf147cf40abe0a228763619dee0f998aac01000000fdfd0000483045022100f990b4ab87413b9d57cfd3a503b77db0e0bd9ef7e589f348483b86f9c4e9fd1802204b32ad8571998b52ee94e3f3d1fd961d14fbd0de5a05186326192cd92fd671dd01473044022078bb8abbfb4ed3ba2b3bde978a47ed1cc1899e6e784f3fc86a6712e9718ea718022004d7c705fac0b9f9d2ebc4c0f9293c79310de9669cb61c9f65386bf6f459b387014c69522103d8123bee8ca916c7b5eafaf6602eeb71d9ee70a6bb2a9b88862ac0de8b8735032103b6f0a386c1544c5d57c00b90e380d7dbc9a582c86157516d7b5db513c0938c642103b9742d1bc44d50daaa36fbde73783388e6d2fcdc00e9e573662b06528eab8e6753aeffffffff0210270000000000001976a914a68507d84e71f109523150a1b41e25dd1b7f48d588ac00290e000000000017a914e82a01675db43972f1cf2db99f870b742e5d0e058700000000"]} 
returnJson: 200 OK 
提交交易返回数据为 {"result":"c8573049501cf6ac921d1f7a28b5e9d3275c8a5b6ffdcd3d78945945978eccd1","error":null,"id":"6"}

交易发送成功 
交易hash为: c8573049501cf6ac921d1f7a28b5e9d3275c8a5b6ffdcd3d78945945978eccd1

